{
  "_format": "hh-sol-artifact-1",
  "contractName": "Lock",
  "sourceName": "contracts/Lock.sol",
  "abi": [
    {
      "inputs": [
        {
          "internalType": "uint256",
          "name": "raiseId",
          "type": "uint256"
        },
        {
          "internalType": "uint256",
          "name": "transactionId",
          "type": "uint256"
        }
      ],
      "name": "CheckVote",
      "outputs": [
        {
          "internalType": "bool",
          "name": "",
          "type": "bool"
        }
      ],
      "stateMutability": "view",
      "type": "function"
    },
    {
      "inputs": [
        {
          "internalType": "uint256",
          "name": "raiseId",
          "type": "uint256"
        },
        {
          "internalType": "uint256",
          "name": "transactioId",
          "type": "uint256"
        },
        {
          "internalType": "bool",
          "name": "result",
          "type": "bool"
        }
      ],
      "name": "Vote",
      "outputs": [],
      "stateMutability": "nonpayable",
      "type": "function"
    },
    {
      "inputs": [],
      "name": "balanceOf",
      "outputs": [
        {
          "internalType": "uint256",
          "name": "",
          "type": "uint256"
        }
      ],
      "stateMutability": "view",
      "type": "function"
    },
    {
      "inputs": [],
      "name": "counter",
      "outputs": [
        {
          "internalType": "uint256",
          "name": "",
          "type": "uint256"
        }
      ],
      "stateMutability": "view",
      "type": "function"
    },
    {
      "inputs": [
        {
          "internalType": "uint256",
          "name": "raiseId",
          "type": "uint256"
        }
      ],
      "name": "donateRaise",
      "outputs": [],
      "stateMutability": "payable",
      "type": "function"
    },
    {
      "inputs": [
        {
          "internalType": "uint256",
          "name": "",
          "type": "uint256"
        },
        {
          "internalType": "address",
          "name": "",
          "type": "address"
        }
      ],
      "name": "donors",
      "outputs": [
        {
          "internalType": "bool",
          "name": "",
          "type": "bool"
        }
      ],
      "stateMutability": "view",
      "type": "function"
    },
    {
      "inputs": [
        {
          "internalType": "address",
          "name": "client",
          "type": "address"
        },
        {
          "internalType": "uint256",
          "name": "amount",
          "type": "uint256"
        },
        {
          "internalType": "uint256",
          "name": "raiseId",
          "type": "uint256"
        },
        {
          "internalType": "string",
          "name": "purpose",
          "type": "string"
        },
        {
          "internalType": "string",
          "name": "attach_evidence",
          "type": "string"
        }
      ],
      "name": "handleTransaction",
      "outputs": [],
      "stateMutability": "payable",
      "type": "function"
    },
    {
      "inputs": [
        {
          "internalType": "uint256",
          "name": "raising",
          "type": "uint256"
        },
        {
          "internalType": "string",
          "name": "title",
          "type": "string"
        },
        {
          "internalType": "string",
          "name": "desc",
          "type": "string"
        }
      ],
      "name": "performRaise",
      "outputs": [],
      "stateMutability": "payable",
      "type": "function"
    },
    {
      "inputs": [
        {
          "internalType": "address",
          "name": "",
          "type": "address"
        },
        {
          "internalType": "uint256",
          "name": "",
          "type": "uint256"
        }
      ],
      "name": "raiseIds",
      "outputs": [
        {
          "internalType": "uint256",
          "name": "",
          "type": "uint256"
        }
      ],
      "stateMutability": "view",
      "type": "function"
    },
    {
      "inputs": [
        {
          "internalType": "uint256",
          "name": "",
          "type": "uint256"
        }
      ],
      "name": "raiseInfo",
      "outputs": [
        {
          "internalType": "uint256",
          "name": "raised",
          "type": "uint256"
        },
        {
          "internalType": "uint256",
          "name": "raising",
          "type": "uint256"
        },
        {
          "internalType": "uint256",
          "name": "spent",
          "type": "uint256"
        },
        {
          "internalType": "bool",
          "name": "InDispute",
          "type": "bool"
        },
        {
          "internalType": "string",
          "name": "title",
          "type": "string"
        },
        {
          "internalType": "string",
          "name": "desc",
          "type": "string"
        },
        {
          "internalType": "address",
          "name": "admin",
          "type": "address"
        },
        {
          "internalType": "bool",
          "name": "feeDeducted",
          "type": "bool"
        },
        {
          "internalType": "uint256",
          "name": "timeadded",
          "type": "uint256"
        },
        {
          "internalType": "uint256",
          "name": "timeclosed",
          "type": "uint256"
        },
        {
          "internalType": "uint256",
          "name": "lastTransaction",
          "type": "uint256"
        }
      ],
      "stateMutability": "view",
      "type": "function"
    },
    {
      "inputs": [
        {
          "internalType": "address",
          "name": "",
          "type": "address"
        }
      ],
      "name": "raisingStat",
      "outputs": [
        {
          "internalType": "bool",
          "name": "",
          "type": "bool"
        }
      ],
      "stateMutability": "view",
      "type": "function"
    },
    {
      "inputs": [],
      "name": "returnTransLegth",
      "outputs": [
        {
          "internalType": "uint256",
          "name": "",
          "type": "uint256"
        }
      ],
      "stateMutability": "view",
      "type": "function"
    },
    {
      "inputs": [
        {
          "internalType": "uint256",
          "name": "",
          "type": "uint256"
        },
        {
          "internalType": "uint256",
          "name": "",
          "type": "uint256"
        }
      ],
      "name": "transactions",
      "outputs": [
        {
          "internalType": "address",
          "name": "to",
          "type": "address"
        },
        {
          "internalType": "uint256",
          "name": "valuesent",
          "type": "uint256"
        },
        {
          "internalType": "string",
          "name": "purpose",
          "type": "string"
        },
        {
          "internalType": "string",
          "name": "attach_evidence",
          "type": "string"
        },
        {
          "internalType": "uint256",
          "name": "for_votes",
          "type": "uint256"
        },
        {
          "internalType": "uint256",
          "name": "against_votes",
          "type": "uint256"
        },
        {
          "internalType": "uint256",
          "name": "id",
          "type": "uint256"
        },
        {
          "internalType": "uint256",
          "name": "start",
          "type": "uint256"
        }
      ],
      "stateMutability": "view",
      "type": "function"
    },
    {
      "inputs": [
        {
          "internalType": "address",
          "name": "",
          "type": "address"
        }
      ],
      "name": "userInfo",
      "outputs": [
        {
          "internalType": "address",
          "name": "wallet",
          "type": "address"
        },
        {
          "internalType": "bool",
          "name": "deactivated",
          "type": "bool"
        },
        {
          "internalType": "uint256",
          "name": "currentRaise",
          "type": "uint256"
        }
      ],
      "stateMutability": "view",
      "type": "function"
    }
  ],
  "bytecode": "0x608060405234801561001057600080fd5b506126c6806100206000396000f3fe6080604052600436106100dd5760003560e01c8063722713f71161007f5780639b429d50116100595780639b429d50146102f1578063b040fd7b1461032e578063bf9bdec41461034a578063d25f157614610375576100dd565b8063722713f71461026d57806379592382146102985780637e20958d146102b4576100dd565b80631959a002116100bb5780631959a002146101785780634eaf9db6146101b757806361bc221a146101fb5780636d6d26ed14610226576100dd565b80630ac6a537146100e257806316c8a7b8146100fe578063189c47041461013b575b600080fd5b6100fc60048036038101906100f7919061160d565b61039e565b005b34801561010a57600080fd5b506101256004803603810190610120919061163a565b61053b565b6040516101329190611695565b60405180910390f35b34801561014757600080fd5b50610162600480360381019061015d919061170e565b61061a565b60405161016f9190611695565b60405180910390f35b34801561018457600080fd5b5061019f600480360381019061019a919061174e565b610649565b6040516101ae93929190611799565b60405180910390f35b3480156101c357600080fd5b506101de60048036038101906101d9919061163a565b6106a0565b6040516101f2989796959493929190611860565b60405180910390f35b34801561020757600080fd5b50610210610835565b60405161021d91906118ec565b60405180910390f35b34801561023257600080fd5b5061024d6004803603810190610248919061160d565b61083b565b6040516102649b9a99989796959493929190611907565b60405180910390f35b34801561027957600080fd5b506102826109df565b60405161028f91906118ec565b60405180910390f35b6102b260048036038101906102ad9190611af5565b6109e7565b005b3480156102c057600080fd5b506102db60048036038101906102d69190611ba8565b610e3e565b6040516102e891906118ec565b60405180910390f35b3480156102fd57600080fd5b506103186004803603810190610313919061174e565b610e6f565b6040516103259190611695565b60405180910390f35b61034860048036038101906103439190611be8565b610e8f565b005b34801561035657600080fd5b5061035f611203565b60405161036c91906118ec565b60405180910390f35b34801561038157600080fd5b5061039c60048036038101906103979190611c9f565b611221565b005b600a600082815260200190815260200160002060030160009054906101000a900460ff1615610402576040517f08c379a00000000000000000000000000000000000000000000000000000000081526004016103f990611d3e565b60405180910390fd5b670de0b6b3a7640000346104169190611dbc565b600a600083815260200190815260200160002060000154600a60008481526020019081526020016000206001015461044e9190611ded565b101561048f576040517f08c379a000000000000000000000000000000000000000000000000000000000815260040161048690611e6d565b60405180910390fd5b60016003600083815260200190815260200160002060003373ffffffffffffffffffffffffffffffffffffffff1673ffffffffffffffffffffffffffffffffffffffff16815260200190815260200160002060006101000a81548160ff021916908315150217905550670de0b6b3a76400003461050c9190611dbc565b600a600083815260200190815260200160002060000160008282546105319190611e8d565b9250508190555050565b6000806004600085815260200190815260200160002080549050505060005b600460008581526020019081526020016000208054905081101561060e5760011515600080868152602001908152602001600020600085815260200190815260200160002060003373ffffffffffffffffffffffffffffffffffffffff1673ffffffffffffffffffffffffffffffffffffffff16815260200190815260200160002060009054906101000a900460ff161515036105fb576000915050610614565b808061060690611ec1565b91505061055a565b50600190505b92915050565b60036020528160005260406000206020528060005260406000206000915091509054906101000a900460ff1681565b60096020528060005260406000206000915090508060000160009054906101000a900473ffffffffffffffffffffffffffffffffffffffff16908060000160149054906101000a900460ff16908060010154905083565b600460205281600052604060002081815481106106bc57600080fd5b9060005260206000209060080201600091509150508060000160009054906101000a900473ffffffffffffffffffffffffffffffffffffffff169080600101549080600201805461070c90611f38565b80601f016020809104026020016040519081016040528092919081815260200182805461073890611f38565b80156107855780601f1061075a57610100808354040283529160200191610785565b820191906000526020600020905b81548152906001019060200180831161076857829003601f168201915b50505050509080600301805461079a90611f38565b80601f01602080910402602001604051908101604052809291908181526020018280546107c690611f38565b80156108135780601f106107e857610100808354040283529160200191610813565b820191906000526020600020905b8154815290600101906020018083116107f657829003601f168201915b5050505050908060040154908060050154908060060154908060070154905088565b60085481565b600a6020528060005260406000206000915090508060000154908060010154908060020154908060030160009054906101000a900460ff169080600401805461088390611f38565b80601f01602080910402602001604051908101604052809291908181526020018280546108af90611f38565b80156108fc5780601f106108d1576101008083540402835291602001916108fc565b820191906000526020600020905b8154815290600101906020018083116108df57829003601f168201915b50505050509080600501805461091190611f38565b80601f016020809104026020016040519081016040528092919081815260200182805461093d90611f38565b801561098a5780601f1061095f5761010080835404028352916020019161098a565b820191906000526020600020905b81548152906001019060200180831161096d57829003601f168201915b5050505050908060060160009054906101000a900473ffffffffffffffffffffffffffffffffffffffff16908060060160149054906101000a900460ff1690806007015490806008015490806009015490508b565b600047905090565b6000600a600085815260200190815260200160002060000154600a600086815260200190815260200160002060010154610a219190611ded565b14610a61576040517f08c379a0000000000000000000000000000000000000000000000000000000008152600401610a5890611fb5565b60405180910390fd5b6000600a600085815260200190815260200160002060020154600a600086815260200190815260200160002060010154610a9b9190611ded565b11610adb576040517f08c379a0000000000000000000000000000000000000000000000000000000008152600401610ad290612021565b60405180910390fd5b3373ffffffffffffffffffffffffffffffffffffffff16600a600085815260200190815260200160002060060160009054906101000a900473ffffffffffffffffffffffffffffffffffffffff1673ffffffffffffffffffffffffffffffffffffffff1614610b7f576040517f08c379a0000000000000000000000000000000000000000000000000000000008152600401610b769061208d565b60405180910390fd5b6000610b8a84611488565b90508015610bc2576001600a600086815260200190815260200160002060030160006101000a81548160ff0219169083151502179055505b8015610c03576040517f08c379a0000000000000000000000000000000000000000000000000000000008152600401610bfa906120f9565b60405180910390fd5b60006004600086815260200190815260200160002080549050905085600a60008781526020019081526020016000206002016000828254610c449190611e8d565b925050819055508673ffffffffffffffffffffffffffffffffffffffff166108fc670de0b6b3a764000088610c799190612119565b9081150290604051600060405180830381858888f19350505050158015610ca4573d6000803e3d6000fd5b506000600160003373ffffffffffffffffffffffffffffffffffffffff1673ffffffffffffffffffffffffffffffffffffffff16815260200190815260200160002060006101000a81548160ff0219169083151502179055506060600460008781526020019081526020016000206040518061010001604052808a73ffffffffffffffffffffffffffffffffffffffff168152602001898152602001878152602001868152602001600081526020016000815260200184815260200142815250908060018154018082558091505060019003906000526020600020906008020160009091909190915060008201518160000160006101000a81548173ffffffffffffffffffffffffffffffffffffffff021916908373ffffffffffffffffffffffffffffffffffffffff160217905550602082015181600101556040820151816002019081610df39190612307565b506060820151816003019081610e099190612307565b506080820151816004015560a0820151816005015560c0820151816006015560e0820151816007015550505050505050505050565b60026020528160005260406000208181548110610e5a57600080fd5b90600052602060002001600091509150505481565b60016020528060005260406000206000915054906101000a900460ff1681565b600960003373ffffffffffffffffffffffffffffffffffffffff1673ffffffffffffffffffffffffffffffffffffffff16815260200190815260200160002060000160149054906101000a900460ff1615610f1f576040517f08c379a0000000000000000000000000000000000000000000000000000000008152600401610f1690612425565b60405180910390fd5b600160003373ffffffffffffffffffffffffffffffffffffffff1673ffffffffffffffffffffffffffffffffffffffff16815260200190815260200160002060009054906101000a900460ff1615610fac576040517f08c379a0000000000000000000000000000000000000000000000000000000008152600401610fa390612491565b60405180910390fd5b670de0b6b3a764000083610fc09190611dbc565b3414611001576040517f08c379a0000000000000000000000000000000000000000000000000000000008152600401610ff8906124fd565b60405180910390fd5b82600a600060085481526020019081526020016000206001018190555033600a6000600854815260200190815260200160002060060160006101000a81548173ffffffffffffffffffffffffffffffffffffffff021916908373ffffffffffffffffffffffffffffffffffffffff16021790555080600a60006008548152602001908152602001600020600501908161109a9190612307565b5081600a6000600854815260200190815260200160002060040190816110c09190612307565b5042600a6000600854815260200190815260200160002060070181905550600854600960003373ffffffffffffffffffffffffffffffffffffffff1673ffffffffffffffffffffffffffffffffffffffff16815260200190815260200160002060010181905550600260003373ffffffffffffffffffffffffffffffffffffffff1673ffffffffffffffffffffffffffffffffffffffff168152602001908152602001600020600854908060018154018082558091505060019003906000526020600020016000909190919091505560018060003373ffffffffffffffffffffffffffffffffffffffff1673ffffffffffffffffffffffffffffffffffffffff16815260200190815260200160002060006101000a81548160ff021916908315150217905550600860008154809291906111f990611ec1565b9190505550505050565b60006004600080815260200190815260200160002080549050905090565b816004600085815260200190815260200160002080549050101561127a576040517f08c379a000000000000000000000000000000000000000000000000000000000815260040161127190612569565b60405180910390fd5b6000611286848461053b565b9050806112c8576040517f08c379a00000000000000000000000000000000000000000000000000000000081526004016112bf906125d5565b60405180910390fd5b6003600085815260200190815260200160002060003373ffffffffffffffffffffffffffffffffffffffff1673ffffffffffffffffffffffffffffffffffffffff16815260200190815260200160002060009054906101000a900460ff16611365576040517f08c379a000000000000000000000000000000000000000000000000000000000815260040161135c90612641565b60405180910390fd5b81156113bc576004600085815260200190815260200160002083815481106113905761138f612661565b5b906000526020600020906008020160040160008154809291906113b290611ec1565b9190505550611409565b6004600085815260200190815260200160002083815481106113e1576113e0612661565b5b9060005260206000209060080201600501600081548092919061140390611ec1565b91905055505b6001600080868152602001908152602001600020600085815260200190815260200160002060003373ffffffffffffffffffffffffffffffffffffffff1673ffffffffffffffffffffffffffffffffffffffff16815260200190815260200160002060006101000a81548160ff02191690831515021790555050505050565b6000806000905060006004600085815260200190815260200160002080549050036114b75760009150506115be565b60005b60046000858152602001908152602001600020805490508110156115b8576201518060046000868152602001908152602001600020828154811061150157611500612661565b5b9060005260206000209060080201600701544261151e9190611ded565b118015611597575060046000858152602001908152602001600020818154811061154b5761154a612661565b5b90600052602060002090600802016004015460046000868152602001908152602001600020828154811061158257611581612661565b5b90600052602060002090600802016005015410155b156115a557600191506115b8565b80806115b090611ec1565b9150506114ba565b50809150505b919050565b6000604051905090565b600080fd5b600080fd5b6000819050919050565b6115ea816115d7565b81146115f557600080fd5b50565b600081359050611607816115e1565b92915050565b600060208284031215611623576116226115cd565b5b6000611631848285016115f8565b91505092915050565b60008060408385031215611651576116506115cd565b5b600061165f858286016115f8565b9250506020611670858286016115f8565b9150509250929050565b60008115159050919050565b61168f8161167a565b82525050565b60006020820190506116aa6000830184611686565b92915050565b600073ffffffffffffffffffffffffffffffffffffffff82169050919050565b60006116db826116b0565b9050919050565b6116eb816116d0565b81146116f657600080fd5b50565b600081359050611708816116e2565b92915050565b60008060408385031215611725576117246115cd565b5b6000611733858286016115f8565b9250506020611744858286016116f9565b9150509250929050565b600060208284031215611764576117636115cd565b5b6000611772848285016116f9565b91505092915050565b611784816116d0565b82525050565b611793816115d7565b82525050565b60006060820190506117ae600083018661177b565b6117bb6020830185611686565b6117c8604083018461178a565b949350505050565b600081519050919050565b600082825260208201905092915050565b60005b8381101561180a5780820151818401526020810190506117ef565b60008484015250505050565b6000601f19601f8301169050919050565b6000611832826117d0565b61183c81856117db565b935061184c8185602086016117ec565b61185581611816565b840191505092915050565b600061010082019050611876600083018b61177b565b611883602083018a61178a565b81810360408301526118958189611827565b905081810360608301526118a98188611827565b90506118b8608083018761178a565b6118c560a083018661178a565b6118d260c083018561178a565b6118df60e083018461178a565b9998505050505050505050565b6000602082019050611901600083018461178a565b92915050565b60006101608201905061191d600083018e61178a565b61192a602083018d61178a565b611937604083018c61178a565b611944606083018b611686565b8181036080830152611956818a611827565b905081810360a083015261196a8189611827565b905061197960c083018861177b565b61198660e0830187611686565b61199461010083018661178a565b6119a261012083018561178a565b6119b061014083018461178a565b9c9b505050505050505050505050565b600080fd5b600080fd5b7f4e487b7100000000000000000000000000000000000000000000000000000000600052604160045260246000fd5b611a0282611816565b810181811067ffffffffffffffff82111715611a2157611a206119ca565b5b80604052505050565b6000611a346115c3565b9050611a4082826119f9565b919050565b600067ffffffffffffffff821115611a6057611a5f6119ca565b5b611a6982611816565b9050602081019050919050565b82818337600083830152505050565b6000611a98611a9384611a45565b611a2a565b905082815260208101848484011115611ab457611ab36119c5565b5b611abf848285611a76565b509392505050565b600082601f830112611adc57611adb6119c0565b5b8135611aec848260208601611a85565b91505092915050565b600080600080600060a08688031215611b1157611b106115cd565b5b6000611b1f888289016116f9565b9550506020611b30888289016115f8565b9450506040611b41888289016115f8565b935050606086013567ffffffffffffffff811115611b6257611b616115d2565b5b611b6e88828901611ac7565b925050608086013567ffffffffffffffff811115611b8f57611b8e6115d2565b5b611b9b88828901611ac7565b9150509295509295909350565b60008060408385031215611bbf57611bbe6115cd565b5b6000611bcd858286016116f9565b9250506020611bde858286016115f8565b9150509250929050565b600080600060608486031215611c0157611c006115cd565b5b6000611c0f868287016115f8565b935050602084013567ffffffffffffffff811115611c3057611c2f6115d2565b5b611c3c86828701611ac7565b925050604084013567ffffffffffffffff811115611c5d57611c5c6115d2565b5b611c6986828701611ac7565b9150509250925092565b611c7c8161167a565b8114611c8757600080fd5b50565b600081359050611c9981611c73565b92915050565b600080600060608486031215611cb857611cb76115cd565b5b6000611cc6868287016115f8565b9350506020611cd7868287016115f8565b9250506040611ce886828701611c8a565b9150509250925092565b7f726169736520696e206469737075746500000000000000000000000000000000600082015250565b6000611d286010836117db565b9150611d3382611cf2565b602082019050919050565b60006020820190508181036000830152611d5781611d1b565b9050919050565b7f4e487b7100000000000000000000000000000000000000000000000000000000600052601260045260246000fd5b7f4e487b7100000000000000000000000000000000000000000000000000000000600052601160045260246000fd5b6000611dc7826115d7565b9150611dd2836115d7565b925082611de257611de1611d5e565b5b828204905092915050565b6000611df8826115d7565b9150611e03836115d7565b9250828203905081811115611e1b57611e1a611d8d565b5b92915050565b7f4d6f7265207468616e206e656365737361727900000000000000000000000000600082015250565b6000611e576013836117db565b9150611e6282611e21565b602082019050919050565b60006020820190508181036000830152611e8681611e4a565b9050919050565b6000611e98826115d7565b9150611ea3836115d7565b9250828201905080821115611ebb57611eba611d8d565b5b92915050565b6000611ecc826115d7565b91507fffffffffffffffffffffffffffffffffffffffffffffffffffffffffffffffff8203611efe57611efd611d8d565b5b600182019050919050565b7f4e487b7100000000000000000000000000000000000000000000000000000000600052602260045260246000fd5b60006002820490506001821680611f5057607f821691505b602082108103611f6357611f62611f09565b5b50919050565b7f52616973696e67206e6f742079657420636f6d706c6574656400000000000000600082015250565b6000611f9f6019836117db565b9150611faa82611f69565b602082019050919050565b60006020820190508181036000830152611fce81611f92565b9050919050565b7f4c6f772062616c616e6365000000000000000000000000000000000000000000600082015250565b600061200b600b836117db565b915061201682611fd5565b602082019050919050565b6000602082019050818103600083015261203a81611ffe565b9050919050565b7f4f6e6c792061646d696e20686176652061636365737300000000000000000000600082015250565b60006120776016836117db565b915061208282612041565b602082019050919050565b600060208201905081810360008301526120a68161206a565b9050919050565b7f526169736520656e746572656420646973707574650000000000000000000000600082015250565b60006120e36015836117db565b91506120ee826120ad565b602082019050919050565b60006020820190508181036000830152612112816120d6565b9050919050565b6000612124826115d7565b915061212f836115d7565b925082820261213d816115d7565b9150828204841483151761215457612153611d8d565b5b5092915050565b60008190508160005260206000209050919050565b60006020601f8301049050919050565b600082821b905092915050565b6000600883026121bd7fffffffffffffffffffffffffffffffffffffffffffffffffffffffffffffffff82612180565b6121c78683612180565b95508019841693508086168417925050509392505050565b6000819050919050565b60006122046121ff6121fa846115d7565b6121df565b6115d7565b9050919050565b6000819050919050565b61221e836121e9565b61223261222a8261220b565b84845461218d565b825550505050565b600090565b61224761223a565b612252818484612215565b505050565b5b818110156122765761226b60008261223f565b600181019050612258565b5050565b601f8211156122bb5761228c8161215b565b61229584612170565b810160208510156122a4578190505b6122b86122b085612170565b830182612257565b50505b505050565b600082821c905092915050565b60006122de600019846008026122c0565b1980831691505092915050565b60006122f783836122cd565b9150826002028217905092915050565b612310826117d0565b67ffffffffffffffff811115612329576123286119ca565b5b6123338254611f38565b61233e82828561227a565b600060209050601f831160018114612371576000841561235f578287015190505b61236985826122eb565b8655506123d1565b601f19841661237f8661215b565b60005b828110156123a757848901518255600182019150602085019450602081019050612382565b868310156123c457848901516123c0601f8916826122cd565b8355505b6001600288020188555050505b505050505050565b7f557365722062616e6e65642066726f6d20746865206e6574776f726b00000000600082015250565b600061240f601c836117db565b915061241a826123d9565b602082019050919050565b6000602082019050818103600083015261243e81612402565b9050919050565b7f416e6f74686520726169736520696e2070726f67726573730000000000000000600082015250565b600061247b6018836117db565b915061248682612445565b602082019050919050565b600060208201905081810360008301526124aa8161246e565b9050919050565b7f5354414b45204d4f4e45592073686f756c642062652031657468000000000000600082015250565b60006124e7601a836117db565b91506124f2826124b1565b602082019050919050565b60006020820190508181036000830152612516816124da565b9050919050565b7f496e76616c6964207472616e73616374696f6e20696400000000000000000000600082015250565b60006125536016836117db565b915061255e8261251d565b602082019050919050565b6000602082019050818103600083015261258281612546565b9050919050565b7f566f74696e6720636f6d706c657465642062792073656e646572000000000000600082015250565b60006125bf601a836117db565b91506125ca82612589565b602082019050919050565b600060208201905081810360008301526125ee816125b2565b9050919050565b7f4f6e6c7920646f6e6f72732063616e20766f7465000000000000000000000000600082015250565b600061262b6014836117db565b9150612636826125f5565b602082019050919050565b6000602082019050818103600083015261265a8161261e565b9050919050565b7f4e487b7100000000000000000000000000000000000000000000000000000000600052603260045260246000fdfea2646970667358221220932f0c0ad7f693339e8149a3fdb0d2ec7f886ff14950c2c1de45e0289b76e74264736f6c63430008110033",
  "linkReferences": {},
  "deployedLinkReferences": {}
}